{
  "address": "0xe7f1725E7734CE288F8367e1Bb143E90bb3F0512",
  "abi": [
    {
      "inputs": [
        {
          "internalType": "address",
          "name": "priceFeedAddress",
          "type": "address"
        }
      ],
      "stateMutability": "nonpayable",
      "type": "constructor"
    },
    {
      "inputs": [
        {
          "internalType": "address",
          "name": "",
          "type": "address"
        }
      ],
      "name": "addressToAmount",
      "outputs": [
        {
          "internalType": "uint256",
          "name": "",
          "type": "uint256"
        }
      ],
      "stateMutability": "view",
      "type": "function"
    },
    {
      "inputs": [],
      "name": "fund",
      "outputs": [],
      "stateMutability": "payable",
      "type": "function"
    },
    {
      "inputs": [],
      "name": "minimumUSD",
      "outputs": [
        {
          "internalType": "uint256",
          "name": "",
          "type": "uint256"
        }
      ],
      "stateMutability": "view",
      "type": "function"
    },
    {
      "inputs": [],
      "name": "owner",
      "outputs": [
        {
          "internalType": "address",
          "name": "",
          "type": "address"
        }
      ],
      "stateMutability": "view",
      "type": "function"
    },
    {
      "inputs": [],
      "name": "priceFeed",
      "outputs": [
        {
          "internalType": "contract AggregatorV3Interface",
          "name": "",
          "type": "address"
        }
      ],
      "stateMutability": "view",
      "type": "function"
    },
    {
      "inputs": [],
      "name": "withdraw",
      "outputs": [],
      "stateMutability": "nonpayable",
      "type": "function"
    }
  ],
  "transactionHash": "0x95bd0e0396dcddd0011760bbf70a5c2643960902de2231860e630231cef3ec3a",
  "args": [
    "0x5FbDB2315678afecb367f032d93F642f64180aa3"
  ],
  "numDeployments": 1,
  "solcInputHash": "1c7e4f88374a1e6ee23334e0292b3c0f",
  "bytecode": "0x608060405234801561001057600080fd5b50604051610e32380380610e328339818101604052810190610032919061011d565b33600260006101000a81548173ffffffffffffffffffffffffffffffffffffffff021916908373ffffffffffffffffffffffffffffffffffffffff16021790555080600360006101000a81548173ffffffffffffffffffffffffffffffffffffffff021916908373ffffffffffffffffffffffffffffffffffffffff1602179055505061014a565b600080fd5b600073ffffffffffffffffffffffffffffffffffffffff82169050919050565b60006100ea826100bf565b9050919050565b6100fa816100df565b811461010557600080fd5b50565b600081519050610117816100f1565b92915050565b600060208284031215610133576101326100ba565b5b600061014184828501610108565b91505092915050565b610cd9806101596000396000f3fe6080604052600436106100555760003560e01c80633430a88c1461005a5780633c7e7d28146100855780633ccfd60b146100c2578063741bef1a146100d95780638da5cb5b14610104578063b60d42881461012f575b600080fd5b34801561006657600080fd5b5061006f610139565b60405161007c91906106ab565b60405180910390f35b34801561009157600080fd5b506100ac60048036038101906100a79190610729565b610146565b6040516100b991906106ab565b60405180910390f35b3480156100ce57600080fd5b506100d761015e565b005b3480156100e557600080fd5b506100ee6103a9565b6040516100fb91906107b5565b60405180910390f35b34801561011057600080fd5b506101196103cf565b60405161012691906107df565b60405180910390f35b6101376103f5565b005b6802b5e3af16b188000081565b60016020528060005260406000206000915090505481565b3373ffffffffffffffffffffffffffffffffffffffff16600260009054906101000a900473ffffffffffffffffffffffffffffffffffffffff1673ffffffffffffffffffffffffffffffffffffffff16146101ee576040517f08c379a00000000000000000000000000000000000000000000000000000000081526004016101e590610857565b60405180910390fd5b60005b60008054905081111561029957600080828154811061021357610212610877565b5b9060005260206000200160009054906101000a900473ffffffffffffffffffffffffffffffffffffffff1690506000600160008373ffffffffffffffffffffffffffffffffffffffff1673ffffffffffffffffffffffffffffffffffffffff16815260200190815260200160002081905550508080610291906108d5565b9150506101f1565b50600067ffffffffffffffff8111156102b5576102b461091d565b5b6040519080825280602002602001820160405280156102e35781602001602082028036833780820191505090505b50600090805190602001906102f99291906105eb565b5060003373ffffffffffffffffffffffffffffffffffffffff16476040516103209061097d565b60006040518083038185875af1925050503d806000811461035d576040519150601f19603f3d011682016040523d82523d6000602084013e610362565b606091505b50509050806103a6576040517f08c379a000000000000000000000000000000000000000000000000000000000815260040161039d906109de565b60405180910390fd5b50565b600360009054906101000a900473ffffffffffffffffffffffffffffffffffffffff1681565b600260009054906101000a900473ffffffffffffffffffffffffffffffffffffffff1681565b6802b5e3af16b1880000610434600360009054906101000a900473ffffffffffffffffffffffffffffffffffffffff163461051e90919063ffffffff16565b1015610475576040517f08c379a000000000000000000000000000000000000000000000000000000000815260040161046c90610a4a565b60405180910390fd5b6000339080600181540180825580915050600190039060005260206000200160009091909190916101000a81548173ffffffffffffffffffffffffffffffffffffffff021916908373ffffffffffffffffffffffffffffffffffffffff16021790555034600160003373ffffffffffffffffffffffffffffffffffffffff1673ffffffffffffffffffffffffffffffffffffffff16815260200190815260200160002081905550565b60008061052a8361055a565b90506000670de0b6b3a764000085836105439190610a6a565b61054d9190610adb565b9050809250505092915050565b6000808273ffffffffffffffffffffffffffffffffffffffff1663feaf968c6040518163ffffffff1660e01b815260040160a060405180830381865afa1580156105a8573d6000803e3d6000fd5b505050506040513d601f19601f820116820180604052508101906105cc9190610bb0565b5050509150506402540be400816105e39190610c2b565b915050919050565b828054828255906000526020600020908101928215610664579160200282015b828111156106635782518260006101000a81548173ffffffffffffffffffffffffffffffffffffffff021916908373ffffffffffffffffffffffffffffffffffffffff1602179055509160200191906001019061060b565b5b5090506106719190610675565b5090565b5b8082111561068e576000816000905550600101610676565b5090565b6000819050919050565b6106a581610692565b82525050565b60006020820190506106c0600083018461069c565b92915050565b600080fd5b600073ffffffffffffffffffffffffffffffffffffffff82169050919050565b60006106f6826106cb565b9050919050565b610706816106eb565b811461071157600080fd5b50565b600081359050610723816106fd565b92915050565b60006020828403121561073f5761073e6106c6565b5b600061074d84828501610714565b91505092915050565b6000819050919050565b600061077b610776610771846106cb565b610756565b6106cb565b9050919050565b600061078d82610760565b9050919050565b600061079f82610782565b9050919050565b6107af81610794565b82525050565b60006020820190506107ca60008301846107a6565b92915050565b6107d9816106eb565b82525050565b60006020820190506107f460008301846107d0565b92915050565b600082825260208201905092915050565b7f53656e646572206973206e6f74206f776e657200000000000000000000000000600082015250565b60006108416013836107fa565b915061084c8261080b565b602082019050919050565b6000602082019050818103600083015261087081610834565b9050919050565b7f4e487b7100000000000000000000000000000000000000000000000000000000600052603260045260246000fd5b7f4e487b7100000000000000000000000000000000000000000000000000000000600052601160045260246000fd5b60006108e082610692565b91507fffffffffffffffffffffffffffffffffffffffffffffffffffffffffffffffff8203610912576109116108a6565b5b600182019050919050565b7f4e487b7100000000000000000000000000000000000000000000000000000000600052604160045260246000fd5b600081905092915050565b50565b600061096760008361094c565b915061097282610957565b600082019050919050565b60006109888261095a565b9150819050919050565b7f43616c6c206661696c6564000000000000000000000000000000000000000000600082015250565b60006109c8600b836107fa565b91506109d382610992565b602082019050919050565b600060208201905081810360008301526109f7816109bb565b9050919050565b7f457468206e6f7420656e6f75676820746f2073656e6400000000000000000000600082015250565b6000610a346016836107fa565b9150610a3f826109fe565b602082019050919050565b60006020820190508181036000830152610a6381610a27565b9050919050565b6000610a7582610692565b9150610a8083610692565b9250828202610a8e81610692565b91508282048414831517610aa557610aa46108a6565b5b5092915050565b7f4e487b7100000000000000000000000000000000000000000000000000000000600052601260045260246000fd5b6000610ae682610692565b9150610af183610692565b925082610b0157610b00610aac565b5b828204905092915050565b600069ffffffffffffffffffff82169050919050565b610b2b81610b0c565b8114610b3657600080fd5b50565b600081519050610b4881610b22565b92915050565b6000819050919050565b610b6181610b4e565b8114610b6c57600080fd5b50565b600081519050610b7e81610b58565b92915050565b610b8d81610692565b8114610b9857600080fd5b50565b600081519050610baa81610b84565b92915050565b600080600080600060a08688031215610bcc57610bcb6106c6565b5b6000610bda88828901610b39565b9550506020610beb88828901610b6f565b9450506040610bfc88828901610b9b565b9350506060610c0d88828901610b9b565b9250506080610c1e88828901610b39565b9150509295509295909350565b6000610c3682610b4e565b9150610c4183610b4e565b9250828202610c4f81610b4e565b91507f80000000000000000000000000000000000000000000000000000000000000008414600084121615610c8757610c866108a6565b5b8282058414831517610c9c57610c9b6108a6565b5b509291505056fea2646970667358221220423a7cf7241b5c5dab04bad566e002b2b8d3eadd000b01b821a6e5afe2ce9cb364736f6c63430008110033",
  "devdoc": {
    "kind": "dev",
    "methods": {},
    "version": 1
  },
  "userdoc": {
    "kind": "user",
    "methods": {},
    "version": 1
  },
  "storageLayout": {
    "storage": [
      {
        "astId": 61,
        "contract": "contracts/FundMe.sol:FundMe",
        "label": "funders",
        "offset": 0,
        "slot": "0",
        "type": "t_array(t_address)dyn_storage"
      },
      {
        "astId": 65,
        "contract": "contracts/FundMe.sol:FundMe",
        "label": "addressToAmount",
        "offset": 0,
        "slot": "1",
        "type": "t_mapping(t_address,t_uint256)"
      },
      {
        "astId": 67,
        "contract": "contracts/FundMe.sol:FundMe",
        "label": "owner",
        "offset": 0,
        "slot": "2",
        "type": "t_address"
      },
      {
        "astId": 70,
        "contract": "contracts/FundMe.sol:FundMe",
        "label": "priceFeed",
        "offset": 0,
        "slot": "3",
        "type": "t_contract(AggregatorV3Interface)45"
      }
    ],
    "types": {
      "t_address": {
        "encoding": "inplace",
        "label": "address",
        "numberOfBytes": "20"
      },
      "t_array(t_address)dyn_storage": {
        "base": "t_address",
        "encoding": "dynamic_array",
        "label": "address[]",
        "numberOfBytes": "32"
      },
      "t_contract(AggregatorV3Interface)45": {
        "encoding": "inplace",
        "label": "contract AggregatorV3Interface",
        "numberOfBytes": "20"
      },
      "t_mapping(t_address,t_uint256)": {
        "encoding": "mapping",
        "key": "t_address",
        "label": "mapping(address => uint256)",
        "numberOfBytes": "32",
        "value": "t_uint256"
      },
      "t_uint256": {
        "encoding": "inplace",
        "label": "uint256",
        "numberOfBytes": "32"
      }
    }
  }
}